:0300000002193AA8
:0C193A00787FE4F6D8FD75815102198118
:0B1CF7003031323334353637383900D5
:101CC900121C747F32121CE9121C44120ADB80FBBD
:10160D00E4FDFCFFFE1216CCE54D454C6005120ABB
:10161D00DB80F5C2077BB47A007DB57CFF7F4B7E06
:10162D00001205B9200305120ADB80F87D2C7C0120
:10163D007F587E021216CCE54D454C6005120ADB33
:10164D0080F5C2077B5A7A007D2C7C017FC27E011A
:10165D001205B9200305120ADB80F8C2077B5A7AFE
:10166D00007DC27C017F2C7E011205B9200305127D
:10167D000ADB80F8D2077BB47A007D2C7C017F5881
:10168D007E021205B9200305120ADB80F8C2077B22
:10169D005A7A00E4FDFC7FEE7E021205B9200305A7
:1016AD00120ADB80F8C2077B5A7A007D967C007F98
:0F16BD00587E021205B9200305120ADB80F822BD
:100ADB00AE43AF447C007D0F1204378E088F09AEF6
:100AEB0045AF467C007D0F1204378E0A8F0BD3E582
:100AFB004D9400E54C940050053003028181C3E511
:100B0B0008648094807FC25015121CA17F2D121C8B
:100B1B00B5C3E49509F509E49508F5088008121C9E
:100B2B00A17F2B121CB5C3E50A648094807FCA5049
:100B3B0015121CA17F2D121CB5C3E4950BF50BE40C
:100B4B00950AF50A8008121CA17F2B121CB57D7823
:100B5B00AF44AE431219C67D79AF46AE451219C6E6
:100B6B007FC3121CA1AE08AF097C037DE8120437CA
:100B7B007C007D0A12043774F72DF582741C3CF54A
:100B8B0083E493FF121CB5AE08AF097C007D6412A1
:100B9B0004377C007D0A12043774F72DF582741C20
:100BAB003CF583E493FF121CB5AE08AF097C007DC6
:100BBB000A1204377C007D0A12043774F72DF58274
:100BCB00741C3CF583E493FF121CB57FC7121CA168
:100BDB00AE08AF097C007D0A12043774F72DF5823D
:100BEB00741C3CF583E493FF121CB57FCB121CA144
:100BFB00AE0AAF0B7C037DE81204377C007D0A1232
:100C0B00043774F72DF582741C3CF583E493FF12C3
:100C1B001CB5AE0AAF0B7C007D641204377C007DE3
:100C2B000A12043774F72DF582741C3CF583E49398
:100C3B00FF121CB5AE0AAF0B7C007D0A1204377C89
:100C4B00007D0A12043774F72DF582741C3CF58372
:100C5B00E493FF121CB57FCF121CA1AE0AAF0B7C25
:100C6B00007D0A12043774F72DF582741C3CF58352
:090C7B00E493FF121CB50208000D
:0D1CE900EFD3940040077E6EDEFE1F80F3F7
:011CF60022CB
:08177F00011700011800C10967
:101C0B0075B00FE5B0540FF50D640F60297F0A1204
:101C1B001CE9E5B0540F640F601CE5B0540FF50DD3
:101C2B0044F0F5B0E5B054F0FFE5B054F0FEBEF073
:081C3B00F8E50D2FFF227FFFE9
:011C4300227E
:101AD300121C0BEF1204C51B3B771B2F7B1B237DB3
:101AE3001B177E1B38B71B2CBB1B20BD1B14BE1B37
:101AF30035D71B29DB1B1DDD1B11DE1B32E71B2624
:101B0300EB1B1AED1B0EEE00001B3E7F37227F38C6
:101B1300227F39227F61227F34227F35227F362242
:101B23007F62227F31227F32227F33227F63227FB3
:0E1B33002A227F30227F23227F64227FFF221E
:101C7400C2B47F05121CE97F38121CA17F05121C17
:101C8400E97F0C121CA17F05121CE97F06121CA11E
:0D1C94007F05121CE97F01121CA1020F79CF
:101CA1008F10121CD940FBC2B5C2B6D2B4851080C8
:041CB10000C2B42297
:101CB5008F10121CD940FBD2B5C2B6D2B4851080A4
:041CC50000C2B42283
:101CD9007580FFC2B5D2B6C2B400D2B4E580332252
:100F79007F01121CA17F80121CA17F58121CB57F12
:100F890065121CB57F30121CB57F30121CB57F85E8
:100F9900121CA17F59121CB57F65121CB57F301236
:100FA9001CB57F30121CB57F8A121CA17F73121CDD
:100FB900B57F70121CB57F64121CB57F3A121CB53F
:100FC9007F30121CB57FC0121CA17F58121CB57F3F
:100FD9003A121CB57FC6121CA17F2E121CB57FC800
:100FE900121CA17F59121CB57F3A121CB57FCE1273
:070FF9001CA17F2E021CB5B4
:101800007F01121CA17F80121CA17F41121CB57F99
:1018100030121CB57F30121CB57F30121CB57F848E
:10182000121CA17F53121CB57F30121CB57F86128B
:101830001CA17F43121CB57F31121CB57F88121C7E
:10184000A17F58121CB57F63121CB57F30121CB5E6
:101850007F30121CB57F8C121CA17F59121CB57FE2
:1018600063121CB57F30121CB57F30121CB57FC0CF
:10187000121CA17F58121CB57F3A121CB57FC612EC
:101880001CA17F2E121CB57FC8121CA17F59121CEF
:10189000B57F3A121CB57FCE121CA17F2E021CB55B
:10080000E4F50C121AD38F0CE50C64237038E54D17
:10081000454C600DC28EC28CE4F54CF54DD20301FF
:10082000EA30020DAD42AC41AF40AE3F1216CC01F2
:10083000EAA2059207AB2DAA2CAD3EAC3DAF3AAE75
:10084000391205B901EAE54D454C700AE50CB46171
:100850000512160D01EAE50C64627025D3E54A9491
:1008600088E5499413400C7478254AF54A74EC35B0
:1008700049F5493002047F8E80027F85121CA180D9
:1008800030E50C6463704FAE49AF4AFCFD7B507A93
:10089000C3F9F8D312047B400C7488254AF54A74D6
:1008A000133549F5493002047F8E80027F85121C82
:1008B000A1AE49AF4A7C137D881203E2C3740A9F3C
:1008C000FFE49EFE74F72FF582741C3EF583E493DB
:1008D000FF121CB58014E50CB4640F300207C2028D
:1008E0001218008005D202120F792002022172E54F
:1008F0004D454C600330037AE50C642A7019F518F5
:100900000517E51724FE600B14600A240270617F4E
:100910008221A121B121B920090241D7E50CC3945C
:1009200030500241D7E50CD39439400241D7E51746
:1009300024FE600F146014240270357B01AD0C7F1F
:100940000241C87B02AD0C7F0741C87F8E121CA1FB
:10095000AF0C121CB5AF0C7E007C137D881203D047
:10096000C374D09FF54A746C9EF54975170441D73E
:1009700041CD30020241D7E54D454C6005200302D0
:1009800041D7E50C642A703AF5180517E51724FEDF
:10099000601B14601C14601D14601E240470217FF1
:1009A00081121CA17F0F121CA1D20941D77F858023
:1009B0000A7F8780067F8A80027F8E121CA141D722
:1009C00041CD20090241D7E50CC39430500241D7F4
:1009D000E50CD39439400241D7E51724FE7002415B
:1009E0008914700241A314700241BA14700241C20A
:1009F0002404600241CDE518702D7F81121CA17F77
:100A000020121CB57F20121CB57F20121CB5E50CEE
:100A100024D0F52DE434FFF52C7F81121CA1AF0CFE
:100A2000121CB57F82802CE5186401702DAE2CAFAE
:100A30002DFC7D0A1203D0E50C24D0FDEC34FFCD53
:100A40002FF52DED3EF52C7F82121CA1AF0C121C50
:100A5000B57F83121CA10518807DE51864027077AC
:100A6000AE2CAF2DFC7D0A1203D0E50C24D0FDEC9A
:100A700034FFCD2FF52DED3EF52C7F83121CA1AF59
:100A80000C121CB5E4F518804EAF0C7E007C137D73
:100A9000881203D0C374D09FF54A746C9EF5497FC9
:100AA00085800DE50CB43004C2058002D2057F8735
:100AB000121CA1AF0C121CB5801D7B03AD0C7F0A6C
:100AC00080067B04AD0C7F0E120C84800AE4F517BF
:0A0AD0007F0C121CA1C209750CFF77
:010ADA0022F9
:100C84008F0D8D0E8B0FE5186002A1370518E50D49
:100C94002480FF121CA17F20121CB57F20121CB5DA
:100CA400E50D2480FF121CA1AF0E121CB5E50D2426
:100CB40081FF121CA1E50F24FE602714603F14601D
:100CC4005724036002C10AAF0EEF3395E0FEEF2410
:100CD400D0FFEE34FFFE7C007D961203D08E3F8F52
:100CE4004022AF0EEF3395E0FEEF24D0FFEE34FF49
:100CF400FE7C007D961203D08E418F4222AF0EEF10
:100D04003395E0FEEF24D0FFEE34FFFE7C007D96A9
:100D14001203D08E398F3A22AF0EEF3395E0FEEFF7
:100D240024D0FFEE34FFFE7C007D961203D08E3D6E
:100D34008F3E22E50D2481FF121CA1AF0E121CB5BB
:100D4400E4F518E50F24FE603A146063147002A100
:100D5400DF24036002C10AAF0EEF3395E0FEEF24F7
:100D6400D0FFEE34FFFE7C007D961203D0AA06ABC2
:100D740007AE3FAF407D0A1203D0EF2BF540EE3AA9
:100D8400F53F22AF0EEF3395E0FEEF24D0FFEE34B3
:100D9400FFFE7C007D961203D0AA06AB07AE41AFDE
:100DA400427D0A1203D0EF2BF542EE3AF54122AF11
:100DB4000EEF3395E0FEEF24D0FFEE34FFFE7C000F
:100DC4007D961203D0AA06AB07AE39AF3A7D0A125C
:100DD40003D0EF2BF53AEE3AF53922AF0EEF339507
:100DE400E0FEEF24D0FFEE34FFFE7C007D9612037C
:100DF400D0AA06AB07AE3DAF3E7D0A1203D0EF2B5F
:070E0400F53EEE3AF53D2238
:0800030001030206040C0809C8
:10178700024907D0014B00024C0000012600012747
:101797000002280000022A0000023F000002410068
:1017A7000002390000023D0000024300000245002C
:1017B700000233000002350000024E000002500014
:1017C70000022F00000231000002370000023B0038
:1017D7000002470000012E00022C0000C182C185D3
:1017E700C106C183C1000222C350C1010224C350F4
:101C4400758911759850758C3C758AB0758D3C7585
:101C54008BB075CADC75CCDC75CBFF75CDFF75C850
:101C640034D2CAC28ED2ABC28CD2A9D2ACD2AF22E9
:1019C600C3EE64809480402FBD7814EF547FF9EF06
:1019D6007807CEA2E713CE13D8F8543FFC8059EF10
:1019E600547F4480F9EF7807CEA2E713CE13D8F8D8
:1019F600543F4480FC8041BD781FEFF404547FF9C6
:101A0600C3E49FFFE49EFEEF7807CEA2E713CE1352
:101A1600D8F8543F4440FC801FEFF404547F4480C0
:101A2600F9C3E49FFFE49EFEEF7807CEA2E713CE4C
:101A360013D8F8543F44C0FC8999D2042004FD8C85
:061A460099D2042004FD0A
:011A4C002277
:03002300021D02B9
:0B1D0200309803C29832C299C204322C
:101B4100AF26EF3395E0FE74032FF58274003EF566
:101B510083E493FD139290EDC31313929174032FB9
:101B6100F58274003EF583E493FF1313543F1392FF
:101B710092EF131313541F13929330A414C3E52649
:101B8100648094875006E52604FF80027F008F263B
:101B910022D3E526648094804006E52614FF800266
:051BA1007F078F2622E2
:101BA600AF27EF3395E0FE74032FF58274003EF500
:101BB60083E493FD139294EDC31313929574032F4C
:101BC600F58274003EF583E493FF1313543F13929A
:101BD60096EF131313541F13929730A614C3E527D9
:101BE600648094875006E52704FF80027F008F27D4
:101BF60022D3E527648094804006E52714FF8002FF
:051C06007F078F27227B
:03000B00021506D5
:10150600C0E0C0F0C083C082C0D075D000C000C0AB
:0D15160001C002C003C004C005C006C0072C
:10152300D3E54D94C8E54C94004017D3E523954A81
:10153300E5229549400CE523954BF523E5229400DC
:10154300F522D3E54D94C8E54C9400501DAE22AF6F
:1015530023E4FCFD7B507AC3F9F812047B400BE5CE
:101563004B2523F523E43522F522D3E54D94C8E535
:101573004C9400400BD3E523954AE522954950232B
:10158300D3E54D94C8E54C94005012AE22AF23E44A
:10159300FCFD7B507AC3F9F812047B50068549227F
:1015A300854A23AE22AF23AB07AA06E4C39BFFE41D
:1015B3009AFE74019400FDE49400FC7808120491EF
:1015C3008F8CE523F404F58A300018D3E54D94009D
:1015D300E54C94004017121A4DE54D154D70021558
:0F15E3004C800A30A502C2A530A702C2A7B200F1
:1015F200D007D006D005D004D003D002D001D0004D
:0B160200D0D0D082D083D0F0D0E032F6
:03001B000213ECE1
:1013EC00C0E0C0F0C083C082C0D075D000C000C0C7
:0D13FC0001C002C003C004C005C006C00748
:10140900D3E525954AE5249549403FE534954FFFB5
:10141900E533954EFE12000EC006C007C3E53695AA
:1014290051FFE5359550FE12000ED0E02FFFD0E0B8
:101439003EFEC3EF942CEE64809481500DC3E525E4
:10144900954BF525E5249400F524AE24AF25E4FC5D
:10145900FD7B507AC3F9F8D312047B4043E53495F8
:1014690030FFE533952FFE12000EC006C007C3E515
:10147900369532FFE5359531FE12000ED0E02FFF8B
:10148900D0E03EFEC3EF94C8EE648094805011E52D
:101499004B75F003A4AEF02525F525EE3524F5248A
:1014A900AE24AF25AB07AA06E4C39BFFE49AFE74FA
:1014B900019400FDE49400FC78081204918F8DE5F5
:1014C90025F404F58B30010E12115B400512100052
:1014D900800ED203800A30A502C2A530A702C2A796
:0214E900B2014E
:1014EB00D007D006D005D004D003D002D001D00055
:0B14FB00D0D0D082D083D0F0D0E032FF
:101A4D00C3E54764809480403F30A40A0544E544D3
:101A5D00700C05438008E544154470021543D2A56A
:101A6D00121B41C330A60BE542952BFFE541952A8C
:101A7D008009E52B9542FFE52A9541FEC3E5489F78
:101A8D00F548E5479EF5472230A60A0546E546701E
:101A9D000C05458008E546154670021545D2A7127E
:101AAD001BA6C330A40BE5409529FFE53F95288083
:101ABD0009E5299540FFE528953FFEEF2548F548B6
:061ACD00EE3547F547224B
:1018A00030054DD3EF9400EE64809480400CEC64DE
:1018B00080948040057E007F0122D3EF9400EE6487
:1018C000809480500FED9400EC6480948040057EFD
:1018D000007F0222C3EE64809480500FED9400ECF0
:1018E0006480948050057E007F03227E007F042266
:1018F000C3EE648094804010D3ED9400EC64809437
:101900008040057E007F0522C3EE64809480500DE8
:10191000C3EC6480948040057E007F0622D3EF9460
:1019200000EE64809480500DC3EC64809480500578
:0A1930007E007F07227E007F082260
:10100000AD36AC35AF34AE331218A0C3E5476480BB
:1010100094804062EF64014E6006EF64064E700CEF
:10102000E5361536AE357002153501BDEF64024E5A
:101030006006EF64074E700C0534E534AE33704C37
:1010400005338048EF64034E6006EF64084E700C71
:101050000536E536AE357002053501EEEF64044E17
:101060006008EF64054E60022142E5341534AE336A
:10107000700215332124EF64014E6006EF64084EC0
:1010800070250534E534AE33700205331425E0FFD6
:10109000EE33FEE5482FCFE5473ECF2401F548E487
:1010A0003FF547D2A4213DEF64044E6006EF64078C
:1010B0004E7025E5361536AE357002153525E0FF44
:1010C000EE33FEC3E5489FCFE5479ECF2401F548A8
:1010D000E43FF547C2A6802FEF64024E6006EF643E
:1010E000054E702A0536E536AE35700205351425F5
:1010F000E0FFEE33FEE5482FCFE5473ECF2401F574
:1011000048E43FF547D2A6D2A7121BA68034EF646D
:10111000034E6006EF64064E7028E5341534AE3396
:101120007002153325E0FFEE33FEC3E5489FCFE59F
:10113000479ECF2401F548E43FF547C2A4D2A5124B
:101140001B41E534253AF544E5333539F543E536B9
:0A115000253EF546E535353DF54531
:01115A002272
:1016CC008E0D8F0E8C0F8D10854328854429850D2A
:1016DC003F850E4085452A85462B850F4185104256
:1016EC00E4F547F548AE49AF4AAB07AA06C37450B8
:1016FC009BFF74C39AFEE49400FDE49400FCE47B2D
:10170C00C8FAF9F81207BB8F4BC3E50E9529E528EB
:10171C006480F8E50D6480984010D2A4E50E9529FC
:10172C00F54DE50D9528F54C800FC2A4C3E5299520
:10173C000EF54DE528950DF54CC3E510952BE52AD6
:10174C006480F8E50F648098400DD2A6E510952BC7
:10175C00FFE50F952A800CC2A6C3E52B9510FFE57B
:10176C002A950FFEEF254DF54DEE354CF54CD28CF0
:03177C00C28E22F8
:1005B9008A0D8B0EC28CC28EC2068E398F3A8C3D43
:1005C9008D3EC3E5449FFFE5439EF5338F34F54ED9
:1005D9008F4FC3E5469DFFE5459CF5358F36F550B0
:1005E9008F51A2079205E4F547F548850D2C850E34
:1005F9002DAE49AF4AAB07AA06C374509BFF74C31B
:100609009AFEE49400FDE49400FCE47BC8FAF9F84E
:100619001207BB8F4BAC0DAD0EEC20077A120229E5
:100629007B397AFA798E783C12011E120E69C00460
:10063900C005C006C007AC50AD51EC120229D00369
:10064900D002D001D00012011EC004C005C006C0EE
:1006590007AC0DAD0EEC1202297B397AFA798E7846
:100669003C12011E120E53C004C005C006C007ACDF
:100679004EAD4FEC120229A804A905AA06AB07D072
:1006890007D006D005D00412011ED003D002D00134
:10069900D00012002980701202297B397AFA798EEA
:1006A900783C12011E120E69C004C005C006C007BD
:1006B900AC50AD51EC120229D003D002D001D000C8
:1006C90012011EC004C005C006C007AC0DAD0EEC7A
:1006D9001202297B397AFA798E783C12011E120EA0
:1006E90053C004C005C006C007AC4EAD4FEC1202A2
:1006F90029D003D002D001D00012011ED003D002AC
:10070900D001D00012002D1202628E2F8F30AC0D55
:10071900AD0EEC1202297B397AFA798E783C1201F6
:100729001E120E53C004C005C006C007AC50AD511F
:10073900EC120229D003D002D001D00012011EC050
:1007490004C005C006C007AC0DAD0EEC1202297B32
:10075900397AFA798E783C12011E120E69C004C0EA
:1007690005C006C007AC4EAD4FEC120229D003D02C
:1007790002D001D00012011ED003D002D001D00056
:1007890012002D1202628E318F32C3E49530F53892
:10079900E4952FF537C3E49532F53CE49531F53B03
:1007A900AD32AC31AF30AE2F1212AA8F2EC203D2A6
:0207B9008E228E
:1012AA008E138F148C158D16200502615412000EB0
:1012BA00C006C007AF16AE1512000ED005D004D373
:1012CA00EF9DEC6480F8EE6480985011C3E49514A5
:1012DA00FFE49513FEEFB51622EEB5151ED3E516FB
:1012EA009400E5156480948040037F0122C3E515CC
:1012FA0064809480400261EB7F0322AF14AE131224
:10130A00000EC006C007AF16AE1512000ED005D0EB
:10131A0004C3EF9DEC6480F8EE648098400EE516F5
:10132A0065147004E5156513600261EBC3E5136487
:10133A0080948050037F0222D3E5149400E513645D
:10134A00809480500261EB7F0422AF14AE13120026
:10135A000EC006C007AF16AE1512000ED005D00497
:10136A00D3EF9DEC6480F8EE648098500AE516B5D8
:10137A001421E515B5131CD3E5169400E515648010
:10138A00948040037F0122C3E51564809480505104
:10139A007F0322AF14AE1312000EC006C007AF16A9
:1013AA00AE1512000ED005D004C3EF9DEC6480F890
:1013BA00EE6480984010E49514FFE49513FEEFB5AF
:1013CA00161FEEB5151BC3E5136480948050037F86
:1013DA000222D3E5149400E5136480948040027FCE
:0213EA000422DB
:10115B00E52E7002D322200659D3E52D94FAE52C07
:10116B0064809480404CE53C9551FFE53B9550FEE7
:10117B00C3E538954FCDE537954ECD2FFFED3EA20C
:10118B00E713FEEF13FFC3E5369551FDE53595509B
:10119B00FCC3E534954FCBE533954ECB2DFDEB3CA6
:1011AB00FCD3ED9FEE6480F8EC6480985002C32270
:1011BB00D206AD36AC35AF34AE331212AAEF652E74
:1011CB00600241A830056CE52E24FE6020146031CE
:1011DB001460472403600241A9C3E5349530E5331D
:1011EB00952FC3648094804002D322C322C3E5367B
:1011FB009532E5359531C3648094804002D322C388
:10120B0022C3E5349530FFE533952FFED3EF9400E1
:10121B00EE64809480500122C322C3E5369532FFE1
:10122B00E5359531FED3EF9400EE64809480500148
:10123B0022C322E52E24FE602314603914604A2455
:10124B0003705BC3E5349530FFE533952FFED3EF89
:10125B009400EE64809480500122C322C3E536953E
:10126B0032FFE5359531FED3EF9400EE6480948028
:10127B00500122C322C3E5349530E533952FC36467
:10128B008094804002D322C322C3E5369532E535E4
:0F129B009531C3648094804002D322C322C322C2
:100026000202CEE86480F8E933E83360110460F038
:10003600ED33EC337009E8FCE9FDEAFEEBFF220440
:1000460060DED3EB9FEA9EE99DE8C2E78CF0C2F73B
:1000560095F0400CE8CCF8E9CDF9EACEFAEBCFFB07
:1000660012029985D0F05804700320D5B3E80470C5
:10007600075002B2D50202D892D5EC0460F7E4CC60
:10008600C0E0C398F8603B94186008400DD0E0FBD0
:100096000202B0E4FBFAC9FC8028E830E406E4C9B1
:1000A600FBE4CAFCE830E305E4C9CACBFCE8540724
:1000B6006010F8C3E913F9EA13FAEB13FBEC13FC2F
:1000C600D8F130F52FC3E49CFCEF9BFFEE9AFEEDD2
:1000D60099FDD0E0FBEF4E4D4C701222DB0302027D
:1000E600D5EC2CFCEF33FFEE33FEED33FDED30E7C0
:1000F600EB0202B0EF2BFFEE3AFEED39FDD0E0FB4E
:1001060050130BBB00030202D8ED13FDEE13FEEFF6
:0801160013FFEC13FC0202B020
:10011E00EC4D6011E8497017ED33EC3304600DE4DB
:10012E00FCFFFEFD22E933E8330470F80202CE1222
:10013E00029958046009E4CC248150062850090223
:10014E0002D82840030202D5C0E0EB4A7044B980C1
:10015E0006D0E0FB0202C4EF4E701CBD8008EBFF20
:10016E00EAFEE9FD80EBE98DF0A4FEE5F002020760
:10017E00E9CDF9EAFEEBFFEF89F0A4FCE5F0CE89BC
:10018E00F0A42EFFE435F0CD89F0A42DFEE435F079
:10019E008067EF4E7005BD80D780C3EF8BF0A4ACA7
:1001AE00F0EE8BF0A42CFCE435F0F8EF8AF0A42CE2
:1001BE00E5F038FCE433CB8DF0A42CFCE5F03BF8F5
:1001CE00EE8AF0A42CFCE5F038F8E433CF89F0A4E5
:1001DE002CFCE5F038CF3400CE89F0A42FFFE5F0EB
:1001EE003EFEE433C98DF0A42EFEE5F039CD8AF043
:1001FE00A42FFFE5F03EFEE43DFD33D0E0FB5007BB
:10020E000BBB000F0202D8EC2CFCEF33FFEE33FEDB
:06021E00ED33FD0202B009
:1002240075F020800E75F010800575F0087D007E55
:10023400007F003392D530D50312046DEC334010A7
:10024400EF33FFEE33FEED33FDEC33FCD5F0ED225E
:0E025400E5F0247EA2D513CC92E7CDCEFF229A
:10026200EDD2E7CD33EC3392D524814006E4FFFE94
:10027200FDFC22FCE4CFCECDCC24E0501174FF80F3
:10028200EDC3CC13CCCD13CDCE13CECF13CF047090
:07029200F030D5DE02046D1F
:100E0B003A70FA83BCAAE9E43E81E0F8BF9DE9E6BB
:100E1B003F80000039283C1ABB9969663DA335E336
:100E2B00BF255DE73FC90FDB418DDBCCC44936EEF7
:100E3B0045C9913FC5B0F83D3F800000C317F5345D
:100E4B00452FFA73C60AFDDD120EFA04A2E19208D1
:100E5B001420E015900E0B74041203838026120EDF
:100E6B00FA30E102B20820E0EB8C0F8D108E118F5F
:100E7B0012900E1F7404120383A80FA910AA11ABB2
:100E8B001212011EED4C6007300804EC6480FC224A
:100E9B00120EFAC0E08C0F8D108E118F12900E4334
:100EAB007403120383A80FA910AA11AB1212011E0F
:100EBB00ECC50FFCEDC510FDEEC511FEEFC512FF25
:100ECB00900E337403120383D082A80FA910AA11BA
:100EDB00AB12E58230E0071202E6B20880A6EFCB38
:100EEB00FFEECAFEEDC9FDECC8FC1202E68095EDE3
:100EFB0033EC547FCC33920824605007D0E0D0E021
:100F0B000202CE7B837AF97922783E12011EEDF92B
:100F1B0033ECF83324815011EFFBEEFA120262121C
:100F2B000224ECB2E7FC12002DED33EC33602F24DE
:100F3B0003F8C313FCED92E7FDE82481E4501FECAA
:100F4B00F8EDF9EEFAEFFB120262EF04C2E0FCF5EA
:100F5B008212022EECB2E7FC12002DE58203FAEDB1
:0E0F6B0033EC3360071413FCED92E7FDEA222D
:10029900E9D2E7C933E833F892D5EDD2E7CD33ECAB
:0702A90033FC5002B2D52224
:1002B000EC30E7100FBF000C0EBE00080DBD0004AF
:1002C0000BEB6014A2D5EB13FCED92E7FD2274FF5B
:1002D000FCFDFEFF22E480F8A2D574FF13FC7D80B4
:0302E000E480EFC8
:1002E3000202D8EC5D046005E8590470030202CEF3
:1002F300120299580460F6EC4860F2EC7004FDFEBB
:10030300FF22C860DB2481C85009C39860025006ED
:100313000202D59850CAF582E9294B4A7005AB828F
:100323000202C475F0007C1A7880C3EF9BEE9AED4D
:1003330099400DC3EF9BFFEE9AFEED99FDE842F065
:10034300DC23ACF0D0E0FFD0E0FED0E0FDAB8220B8
:10035300E7101BEB60BAEC2CFCEF33FFEE33FEED42
:1003630033FD0202B0E803F830E705C0F075F00092
:10037300EF2FFFEE33FEED33FD40B830E7C280AA26
:10038300C0E0EFFBEEFAEDF9ECF812011ED0E0F558
:10039300F0EFFBEEFAEDF9ECF81204A5A3A3A3A387
:1003A300E8C0E0E9C0E0EAC0E0EBC0E0C0F0120161
:1003B3001E1204B5A3A3A3A312002DD0F0D0E0FB1B
:0D03C300D0E0FAD0E0F9D0E0F8D5F0D42277
:10194600021CC9E493A3F8E493A34003F68001F2D2
:1019560008DFF48029E493A3F85407240CC8C333A2
:10196600C4540F4420C8834004F456800146F6DF71
:10197600E4800B010204081020408090177FE47E6B
:10198600019360BCA3FF543F30E509541FFEE49366
:10199600A360010ECF54C025E060A840B8E493A32D
:1019A600FAE493A3F8E493A3C8C582C8CAC583CA58
:1019B600F0A3C8C582C8CAC583CADFE9DEE780BE10
:0117F70000F1
:1003D000EF8DF0A4A8F0CF8CF0A428CE8DF0A42E41
:0203E000FE22FB
:1003E200BC000BBE0029EF8DF084FFADF022E4CCFF
:1003F200F875F008EF2FFFEE33FEEC33FCEE9DECC8
:10040200984005FCEE9DFE0FD5F0E9E4CEFD22ED0D
:10041200F8F5F0EE8420D21CFEADF075F008EF2F57
:10042200FFED33FD4007985006D5F0F222C398FD48
:050432000FD5F0EA22E5
:10043700C2D5EC30E709B2D5E4C39DFDE49CFCEEE0
:1004470030E715B2D5E4C39FFFE49EFE1203E2C373
:10045700E49DFDE49CFC80031203E230D507C3E46E
:060467009FFFE49EFE224F
:1007BB00C2D5E830E70FB2D5E4C39BFBE49AFAE469
:1007CB0099F9E498F8EC30E717B2D51207F1120556
:1007DB0027E4C39BFBE49AFAE499F9E498F88003C5
:1007EB0012052730D50DE4C39FFFE49EFEE49DFD6B
:0407FB00E49CFC225C
:0E046D00C3E49FFFE49EFEE49DFDE49CFC22A0
:10047B00EB9FF5F0EA9E42F0E99D42F0EC6480C8F8
:06048B0064809845F02298
:10049100E86010ECA2E713FCED13FDEE13FEEF1381
:0404A100FFD8F0226E
:1004A500E493FC740193FD740293FE740393FF229D
:1004B500E493F8740193F9740293FA740393FB229D
:1004C500D083D082F8E4937012740193700DA3A3C6
:1004D50093F8740193F5828883E4737402936860DA
:0604E500EFA3A3A380DFDA
:0C000E00EE30E707C3E49FFFE49EFE22F3
:1004EB0075F008758200EF2FFFEE33FECD33CDCCC8
:1004FB0033CCC58233C5829BED9AEC99E58298404B
:10050B000CF582EE9BFEED9AFDEC99FC0FD5F0D627
:10051B00E4CEFBE4CDFAE4CCF9A88222B800C1B951
:10052B000059BA002DEC8BF084CFCECDFCE5F0CB8F
:10053B00F97818EF2FFFEE33FEED33FDEC33FCEBC8
:10054B0033FB10D703994004EB99FB0FD8E5E4F983
:10055B00FA227818EF2FFFEE33FEED33FDEC33FC70
:10056B00C933C910D7059BE99A4007EC9BFCE99A64
:10057B00F90FD8E0E4C9FAE4CCFB2275F010EF2FA9
:10058B00FFEE33FEED33FDCC33CCC833C810D707A9
:10059B009BEC9AE899400AED9BFDEC9AFCE899F8E4
:0E05AB000FD5F0DAE4CDFBE4CCFAE4C8F92277
:00000001FF
